{
  "_format": "hh-sol-artifact-1",
  "contractName": "Contest",
  "sourceName": "contracts/Contest.sol",
  "abi": [
    {
      "inputs": [
        {
          "internalType": "address",
          "name": "_tokenAddress",
          "type": "address"
        },
        {
          "internalType": "string",
          "name": "_name",
          "type": "string"
        },
        {
          "internalType": "uint256",
          "name": "_startDateTime",
          "type": "uint256"
        },
        {
          "internalType": "uint256",
          "name": "_endDateTime",
          "type": "uint256"
        },
        {
          "internalType": "uint256",
          "name": "_entryFee",
          "type": "uint256"
        },
        {
          "internalType": "uint256",
          "name": "_votingFee",
          "type": "uint256"
        },
        {
          "internalType": "uint256",
          "name": "_winnerPercentage",
          "type": "uint256"
        },
        {
          "internalType": "uint256",
          "name": "_numberOfLuckyVoters",
          "type": "uint256"
        }
      ],
      "stateMutability": "nonpayable",
      "type": "constructor"
    },
    {
      "inputs": [],
      "name": "AlreadyVoted",
      "type": "error"
    },
    {
      "inputs": [],
      "name": "ContestNotActive",
      "type": "error"
    },
    {
      "inputs": [],
      "name": "ContestNotEnded",
      "type": "error"
    },
    {
      "inputs": [],
      "name": "FeeTransferFailed",
      "type": "error"
    },
    {
      "inputs": [],
      "name": "NoFundsToWithdraw",
      "type": "error"
    },
    {
      "inputs": [],
      "name": "NoSubmissionsMade",
      "type": "error"
    },
    {
      "inputs": [],
      "name": "NoVotesCast",
      "type": "error"
    },
    {
      "inputs": [],
      "name": "PrizeTransferFailed",
      "type": "error"
    },
    {
      "inputs": [],
      "name": "SubmissionDoesNotExist",
      "type": "error"
    },
    {
      "inputs": [],
      "name": "WinnerPrizeTransferFailed",
      "type": "error"
    },
    {
      "inputs": [],
      "name": "WithdrawalFailed",
      "type": "error"
    },
    {
      "anonymous": false,
      "inputs": [
        {
          "indexed": false,
          "internalType": "address",
          "name": "winner",
          "type": "address"
        },
        {
          "indexed": false,
          "internalType": "uint256",
          "name": "winnerPrize",
          "type": "uint256"
        },
        {
          "indexed": false,
          "internalType": "uint256",
          "name": "luckyVoterPrize",
          "type": "uint256"
        }
      ],
      "name": "ContestEnded",
      "type": "event"
    },
    {
      "anonymous": false,
      "inputs": [
        {
          "indexed": true,
          "internalType": "address",
          "name": "previousOwner",
          "type": "address"
        },
        {
          "indexed": true,
          "internalType": "address",
          "name": "newOwner",
          "type": "address"
        }
      ],
      "name": "OwnershipTransferred",
      "type": "event"
    },
    {
      "anonymous": false,
      "inputs": [
        {
          "indexed": false,
          "internalType": "uint256",
          "name": "entryFee",
          "type": "uint256"
        },
        {
          "indexed": false,
          "internalType": "uint256",
          "name": "votingFee",
          "type": "uint256"
        },
        {
          "indexed": false,
          "internalType": "uint256",
          "name": "winnerPercentage",
          "type": "uint256"
        },
        {
          "indexed": false,
          "internalType": "uint256",
          "name": "numberOfLuckyVoters",
          "type": "uint256"
        }
      ],
      "name": "ParametersUpdated",
      "type": "event"
    },
    {
      "anonymous": false,
      "inputs": [
        {
          "indexed": true,
          "internalType": "address",
          "name": "wallet",
          "type": "address"
        },
        {
          "indexed": false,
          "internalType": "string",
          "name": "image",
          "type": "string"
        }
      ],
      "name": "SubmissionMade",
      "type": "event"
    },
    {
      "anonymous": false,
      "inputs": [
        {
          "indexed": true,
          "internalType": "address",
          "name": "voter",
          "type": "address"
        },
        {
          "indexed": false,
          "internalType": "uint256",
          "name": "submissionIndex",
          "type": "uint256"
        },
        {
          "indexed": false,
          "internalType": "string",
          "name": "image",
          "type": "string"
        }
      ],
      "name": "VoteCasted",
      "type": "event"
    },
    {
      "inputs": [],
      "name": "dankToken",
      "outputs": [
        {
          "internalType": "contract IERC20",
          "name": "",
          "type": "address"
        }
      ],
      "stateMutability": "view",
      "type": "function"
    },
    {
      "inputs": [],
      "name": "endContest",
      "outputs": [],
      "stateMutability": "nonpayable",
      "type": "function"
    },
    {
      "inputs": [],
      "name": "endDateTime",
      "outputs": [
        {
          "internalType": "uint256",
          "name": "",
          "type": "uint256"
        }
      ],
      "stateMutability": "view",
      "type": "function"
    },
    {
      "inputs": [],
      "name": "entryFee",
      "outputs": [
        {
          "internalType": "uint256",
          "name": "",
          "type": "uint256"
        }
      ],
      "stateMutability": "view",
      "type": "function"
    },
    {
      "inputs": [
        {
          "internalType": "uint256",
          "name": "",
          "type": "uint256"
        },
        {
          "internalType": "address",
          "name": "",
          "type": "address"
        }
      ],
      "name": "hasVotedOnSubmission",
      "outputs": [
        {
          "internalType": "bool",
          "name": "",
          "type": "bool"
        }
      ],
      "stateMutability": "view",
      "type": "function"
    },
    {
      "inputs": [],
      "name": "highestVotes",
      "outputs": [
        {
          "internalType": "uint256",
          "name": "",
          "type": "uint256"
        }
      ],
      "stateMutability": "view",
      "type": "function"
    },
    {
      "inputs": [],
      "name": "name",
      "outputs": [
        {
          "internalType": "string",
          "name": "",
          "type": "string"
        }
      ],
      "stateMutability": "view",
      "type": "function"
    },
    {
      "inputs": [],
      "name": "numberOfLuckyVoters",
      "outputs": [
        {
          "internalType": "uint256",
          "name": "",
          "type": "uint256"
        }
      ],
      "stateMutability": "view",
      "type": "function"
    },
    {
      "inputs": [],
      "name": "owner",
      "outputs": [
        {
          "internalType": "address",
          "name": "",
          "type": "address"
        }
      ],
      "stateMutability": "view",
      "type": "function"
    },
    {
      "inputs": [],
      "name": "renounceOwnership",
      "outputs": [],
      "stateMutability": "nonpayable",
      "type": "function"
    },
    {
      "inputs": [],
      "name": "startDateTime",
      "outputs": [
        {
          "internalType": "uint256",
          "name": "",
          "type": "uint256"
        }
      ],
      "stateMutability": "view",
      "type": "function"
    },
    {
      "inputs": [
        {
          "internalType": "uint256",
          "name": "",
          "type": "uint256"
        }
      ],
      "name": "submissions",
      "outputs": [
        {
          "internalType": "address",
          "name": "wallet",
          "type": "address"
        },
        {
          "internalType": "string",
          "name": "image",
          "type": "string"
        },
        {
          "internalType": "uint256",
          "name": "votes",
          "type": "uint256"
        }
      ],
      "stateMutability": "view",
      "type": "function"
    },
    {
      "inputs": [
        {
          "internalType": "string",
          "name": "image",
          "type": "string"
        }
      ],
      "name": "submitEntry",
      "outputs": [],
      "stateMutability": "nonpayable",
      "type": "function"
    },
    {
      "inputs": [
        {
          "internalType": "address",
          "name": "newOwner",
          "type": "address"
        }
      ],
      "name": "transferOwnership",
      "outputs": [],
      "stateMutability": "nonpayable",
      "type": "function"
    },
    {
      "inputs": [
        {
          "internalType": "uint256",
          "name": "_entryFee",
          "type": "uint256"
        },
        {
          "internalType": "uint256",
          "name": "_votingFee",
          "type": "uint256"
        },
        {
          "internalType": "uint256",
          "name": "_winnerPercentage",
          "type": "uint256"
        },
        {
          "internalType": "uint256",
          "name": "_numberOfLuckyVoters",
          "type": "uint256"
        }
      ],
      "name": "updateContestParameters",
      "outputs": [],
      "stateMutability": "nonpayable",
      "type": "function"
    },
    {
      "inputs": [
        {
          "internalType": "uint256",
          "name": "submissionIndex",
          "type": "uint256"
        }
      ],
      "name": "voteForSubmission",
      "outputs": [],
      "stateMutability": "nonpayable",
      "type": "function"
    },
    {
      "inputs": [
        {
          "internalType": "address",
          "name": "",
          "type": "address"
        }
      ],
      "name": "voterRegistry",
      "outputs": [
        {
          "internalType": "bool",
          "name": "",
          "type": "bool"
        }
      ],
      "stateMutability": "view",
      "type": "function"
    },
    {
      "inputs": [],
      "name": "votingFee",
      "outputs": [
        {
          "internalType": "uint256",
          "name": "",
          "type": "uint256"
        }
      ],
      "stateMutability": "view",
      "type": "function"
    },
    {
      "inputs": [],
      "name": "winnerPercentage",
      "outputs": [
        {
          "internalType": "uint256",
          "name": "",
          "type": "uint256"
        }
      ],
      "stateMutability": "view",
      "type": "function"
    },
    {
      "inputs": [],
      "name": "withdrawUnclaimedPrize",
      "outputs": [],
      "stateMutability": "nonpayable",
      "type": "function"
    }
  ],
  "bytecode": "0x60806040523480156200001157600080fd5b5060405162002eef38038062002eef8339818101604052810190620000379190620003bd565b6000620000496200018260201b60201c565b9050806000806101000a81548173ffffffffffffffffffffffffffffffffffffffff021916908373ffffffffffffffffffffffffffffffffffffffff1602179055508073ffffffffffffffffffffffffffffffffffffffff16600073ffffffffffffffffffffffffffffffffffffffff167f8be0079c531659141344cd1fd0a4f28419497f9722a3daafe3b4186f6b6457e060405160405180910390a35087600c60006101000a81548173ffffffffffffffffffffffffffffffffffffffff021916908373ffffffffffffffffffffffffffffffffffffffff1602179055508660019081620001399190620006e6565b508560028190555084600381905550836004819055508260058190555081600681905550806007819055506000600d819055506000600e819055505050505050505050620007cd565b600033905090565b6000604051905090565b600080fd5b600080fd5b600073ffffffffffffffffffffffffffffffffffffffff82169050919050565b6000620001cb826200019e565b9050919050565b620001dd81620001be565b8114620001e957600080fd5b50565b600081519050620001fd81620001d2565b92915050565b600080fd5b600080fd5b6000601f19601f8301169050919050565b7f4e487b7100000000000000000000000000000000000000000000000000000000600052604160045260246000fd5b62000258826200020d565b810181811067ffffffffffffffff821117156200027a57620002796200021e565b5b80604052505050565b60006200028f6200018a565b90506200029d82826200024d565b919050565b600067ffffffffffffffff821115620002c057620002bf6200021e565b5b620002cb826200020d565b9050602081019050919050565b60005b83811015620002f8578082015181840152602081019050620002db565b60008484015250505050565b60006200031b6200031584620002a2565b62000283565b9050828152602081018484840111156200033a576200033962000208565b5b62000347848285620002d8565b509392505050565b600082601f83011262000367576200036662000203565b5b81516200037984826020860162000304565b91505092915050565b6000819050919050565b620003978162000382565b8114620003a357600080fd5b50565b600081519050620003b7816200038c565b92915050565b600080600080600080600080610100898b031215620003e157620003e062000194565b5b6000620003f18b828c01620001ec565b985050602089015167ffffffffffffffff81111562000415576200041462000199565b5b620004238b828c016200034f565b9750506040620004368b828c01620003a6565b9650506060620004498b828c01620003a6565b95505060806200045c8b828c01620003a6565b94505060a06200046f8b828c01620003a6565b93505060c0620004828b828c01620003a6565b92505060e0620004958b828c01620003a6565b9150509295985092959890939650565b600081519050919050565b7f4e487b7100000000000000000000000000000000000000000000000000000000600052602260045260246000fd5b60006002820490506001821680620004f857607f821691505b6020821081036200050e576200050d620004b0565b5b50919050565b60008190508160005260206000209050919050565b60006020601f8301049050919050565b600082821b905092915050565b600060088302620005787fffffffffffffffffffffffffffffffffffffffffffffffffffffffffffffffff8262000539565b62000584868362000539565b95508019841693508086168417925050509392505050565b6000819050919050565b6000620005c7620005c1620005bb8462000382565b6200059c565b62000382565b9050919050565b6000819050919050565b620005e383620005a6565b620005fb620005f282620005ce565b84845462000546565b825550505050565b600090565b6200061262000603565b6200061f818484620005d8565b505050565b5b8181101562000647576200063b60008262000608565b60018101905062000625565b5050565b601f8211156200069657620006608162000514565b6200066b8462000529565b810160208510156200067b578190505b620006936200068a8562000529565b83018262000624565b50505b505050565b600082821c905092915050565b6000620006bb600019846008026200069b565b1980831691505092915050565b6000620006d68383620006a8565b9150826002028217905092915050565b620006f182620004a5565b67ffffffffffffffff8111156200070d576200070c6200021e565b5b620007198254620004df565b620007268282856200064b565b600060209050601f8311600181146200075e576000841562000749578287015190505b620007558582620006c8565b865550620007c5565b601f1984166200076e8662000514565b60005b82811015620007985784890151825560018201915060208501945060208101905062000771565b86831015620007b85784890151620007b4601f891682620006a8565b8355505b6001600288020188555050505b505050505050565b61271280620007dd6000396000f3fe608060405234801561001057600080fd5b506004361061012c5760003560e01c80638da5cb5b116100ad578063cf5cd10411610071578063cf5cd104146102d9578063d6e903f4146102f5578063dab306b114610313578063f2fde38b14610331578063fc3f2a6b1461034d5761012c565b80638da5cb5b14610257578063ac55a32814610275578063ad73349e14610293578063bc1af9cc146102c5578063c1ec4780146102cf5761012c565b80634763d4e7116100f45780634763d4e7146101c35780636456cb0a146101f3578063715018a614610211578063775f75df1461021b57806382b98f9d146102395761012c565b8063024f48391461013157806306fdde031461014d578063072ea61c1461016b5780632b00cd64146101895780633c9177cd146101a5575b600080fd5b61014b60048036038101906101469190611a03565b61037d565b005b6101556104ab565b6040516101629190611afa565b60405180910390f35b610173610539565b6040516101809190611b2b565b60405180910390f35b6101a3600480360381019061019e9190611c7b565b61053f565b005b6101ad61077a565b6040516101ba9190611b2b565b60405180910390f35b6101dd60048036038101906101d89190611d22565b610780565b6040516101ea9190611d6a565b60405180910390f35b6101fb6107a0565b6040516102089190611b2b565b60405180910390f35b6102196107a6565b005b6102236108e0565b6040516102309190611b2b565b60405180910390f35b6102416108e6565b60405161024e9190611b2b565b60405180910390f35b61025f6108ec565b60405161026c9190611d94565b60405180910390f35b61027d610915565b60405161028a9190611b2b565b60405180910390f35b6102ad60048036038101906102a89190611daf565b61091b565b6040516102bc93929190611ddc565b60405180910390f35b6102cd6109fd565b005b6102d7610c67565b005b6102f360048036038101906102ee9190611daf565b6110c2565b005b6102fd611597565b60405161030a9190611e79565b60405180910390f35b61031b6115bd565b6040516103289190611b2b565b60405180910390f35b61034b60048036038101906103469190611d22565b6115c3565b005b61036760048036038101906103629190611e94565b61176b565b6040516103749190611d6a565b60405180910390f35b61038561179a565b73ffffffffffffffffffffffffffffffffffffffff166103a36108ec565b73ffffffffffffffffffffffffffffffffffffffff16146103f9576040517f08c379a00000000000000000000000000000000000000000000000000000000081526004016103f090611f20565b60405180910390fd5b600254421015801561040d57506003544211155b15610444576040517f0444d32200000000000000000000000000000000000000000000000000000000815260040160405180910390fd5b836004819055508260058190555081600681905550806007819055507fbca959adb5aa52aaea5a17838313a61bebf160bf6064e31593c79c8432c79fea60045460055460065460075460405161049d9493929190611f40565b60405180910390a150505050565b600180546104b890611fb4565b80601f01602080910402602001604051908101604052809291908181526020018280546104e490611fb4565b80156105315780601f1061050657610100808354040283529160200191610531565b820191906000526020600020905b81548152906001019060200180831161051457829003601f168201915b505050505081565b60045481565b600254421015801561055357506003544211155b610589576040517f0444d32200000000000000000000000000000000000000000000000000000000815260040160405180910390fd5b600c60009054906101000a900473ffffffffffffffffffffffffffffffffffffffff1673ffffffffffffffffffffffffffffffffffffffff166323b872dd33306004546040518463ffffffff1660e01b81526004016105ea93929190611fe5565b6020604051808303816000875af1158015610609573d6000803e3d6000fd5b505050506040513d601f19601f8201168201806040525081019061062d9190612048565b610663576040517f4033e4e300000000000000000000000000000000000000000000000000000000815260040160405180910390fd5b600860405180606001604052803373ffffffffffffffffffffffffffffffffffffffff1681526020018381526020016000815250908060018154018082558091505060019003906000526020600020906003020160009091909190915060008201518160000160006101000a81548173ffffffffffffffffffffffffffffffffffffffff021916908373ffffffffffffffffffffffffffffffffffffffff160217905550602082015181600101908161071c9190612217565b506040820151816002015550503373ffffffffffffffffffffffffffffffffffffffff167f79420cdc675fa29acde54b8ea774c4e6fb966987c1fb52e457e9c9512c6babf08260405161076f9190611afa565b60405180910390a250565b60035481565b60096020528060005260406000206000915054906101000a900460ff1681565b600d5481565b6107ae61179a565b73ffffffffffffffffffffffffffffffffffffffff166107cc6108ec565b73ffffffffffffffffffffffffffffffffffffffff1614610822576040517f08c379a000000000000000000000000000000000000000000000000000000000815260040161081990611f20565b60405180910390fd5b600073ffffffffffffffffffffffffffffffffffffffff1660008054906101000a900473ffffffffffffffffffffffffffffffffffffffff1673ffffffffffffffffffffffffffffffffffffffff167f8be0079c531659141344cd1fd0a4f28419497f9722a3daafe3b4186f6b6457e060405160405180910390a360008060006101000a81548173ffffffffffffffffffffffffffffffffffffffff021916908373ffffffffffffffffffffffffffffffffffffffff160217905550565b60025481565b60065481565b60008060009054906101000a900473ffffffffffffffffffffffffffffffffffffffff16905090565b60075481565b6008818154811061092b57600080fd5b90600052602060002090600302016000915090508060000160009054906101000a900473ffffffffffffffffffffffffffffffffffffffff169080600101805461097490611fb4565b80601f01602080910402602001604051908101604052809291908181526020018280546109a090611fb4565b80156109ed5780601f106109c2576101008083540402835291602001916109ed565b820191906000526020600020905b8154815290600101906020018083116109d057829003601f168201915b5050505050908060020154905083565b610a0561179a565b73ffffffffffffffffffffffffffffffffffffffff16610a236108ec565b73ffffffffffffffffffffffffffffffffffffffff1614610a79576040517f08c379a0000000000000000000000000000000000000000000000000000000008152600401610a7090611f20565b60405180910390fd5b6003544211610ab4576040517f0e34ef5000000000000000000000000000000000000000000000000000000000815260040160405180910390fd5b6000600c60009054906101000a900473ffffffffffffffffffffffffffffffffffffffff1673ffffffffffffffffffffffffffffffffffffffff166370a08231306040518263ffffffff1660e01b8152600401610b119190611d94565b602060405180830381865afa158015610b2e573d6000803e3d6000fd5b505050506040513d601f19601f82011682018060405250810190610b5291906122fe565b905060008103610b8e576040517f67e3990d00000000000000000000000000000000000000000000000000000000815260040160405180910390fd5b600c60009054906101000a900473ffffffffffffffffffffffffffffffffffffffff1673ffffffffffffffffffffffffffffffffffffffff1663a9059cbb33836040518363ffffffff1660e01b8152600401610beb92919061232b565b6020604051808303816000875af1158015610c0a573d6000803e3d6000fd5b505050506040513d601f19601f82011682018060405250810190610c2e9190612048565b610c64576040517f27fcd9d100000000000000000000000000000000000000000000000000000000815260040160405180910390fd5b50565b610c6f61179a565b73ffffffffffffffffffffffffffffffffffffffff16610c8d6108ec565b73ffffffffffffffffffffffffffffffffffffffff1614610ce3576040517f08c379a0000000000000000000000000000000000000000000000000000000008152600401610cda90611f20565b60405180910390fd5b600354421015610d1f576040517f0e34ef5000000000000000000000000000000000000000000000000000000000815260040160405180910390fd5b600060088054905003610d5e576040517fb02690c900000000000000000000000000000000000000000000000000000000815260040160405180910390fd5b6000600d5403610d9a576040517f354ba2d500000000000000000000000000000000000000000000000000000000815260040160405180910390fd5b6000600c60009054906101000a900473ffffffffffffffffffffffffffffffffffffffff1673ffffffffffffffffffffffffffffffffffffffff166370a08231306040518263ffffffff1660e01b8152600401610df79190611d94565b602060405180830381865afa158015610e14573d6000803e3d6000fd5b505050506040513d601f19601f82011682018060405250810190610e3891906122fe565b90506000600b80549050606460065484610e529190612383565b610e5c91906123f4565b610e6691906123f4565b905060005b600b80549050811015610fc45760006008600b8381548110610e9057610e8f612425565b5b906000526020600020015481548110610eac57610eab612425565b5b906000526020600020906003020160000160009054906101000a900473ffffffffffffffffffffffffffffffffffffffff169050600c60009054906101000a900473ffffffffffffffffffffffffffffffffffffffff1673ffffffffffffffffffffffffffffffffffffffff1663a9059cbb82856040518363ffffffff1660e01b8152600401610f3d92919061232b565b6020604051808303816000875af1158015610f5c573d6000803e3d6000fd5b505050506040513d601f19601f82011682018060405250810190610f809190612048565b610fb6576040517f2488721f00000000000000000000000000000000000000000000000000000000815260040160405180910390fd5b508080600101915050610e6b565b506000600b8054905082610fd89190612383565b83610fe39190612454565b9050610fee816117a2565b60005b600b805490508110156110bc5760006008600b838154811061101657611015612425565b5b90600052602060002001548154811061103257611031612425565b5b906000526020600020906003020160000160009054906101000a900473ffffffffffffffffffffffffffffffffffffffff1690507f73ea2b6321cbae7c91627f38ef41faa4af65178732e27013dd72408cf3c69f9381856007548661109791906123f4565b6040516110a693929190612488565b60405180910390a1508080600101915050610ff1565b50505050565b6003544211156110fe576040517f0444d32200000000000000000000000000000000000000000000000000000000815260040160405180910390fd5b600880549050811061113c576040517f5005f9de00000000000000000000000000000000000000000000000000000000815260040160405180910390fd5b600f600082815260200190815260200160002060003373ffffffffffffffffffffffffffffffffffffffff1673ffffffffffffffffffffffffffffffffffffffff16815260200190815260200160002060009054906101000a900460ff16156111d1576040517f7c9a1cf900000000000000000000000000000000000000000000000000000000815260040160405180910390fd5b600c60009054906101000a900473ffffffffffffffffffffffffffffffffffffffff1673ffffffffffffffffffffffffffffffffffffffff166323b872dd33306005546040518463ffffffff1660e01b815260040161123293929190611fe5565b6020604051808303816000875af1158015611251573d6000803e3d6000fd5b505050506040513d601f19601f820116820180604052508101906112759190612048565b6112ab576040517f4033e4e300000000000000000000000000000000000000000000000000000000815260040160405180910390fd5b600881815481106112bf576112be612425565b5b906000526020600020906003020160020160008154809291906112e1906124bf565b9190505550600d54600882815481106112fd576112fc612425565b5b9060005260206000209060030201600201541115611366576008818154811061132957611328612425565b5b906000526020600020906003020160020154600d81905550604051806020016040528082815250600b90600161136092919061194f565b50611413565b600d546008828154811061137d5761137c612425565b5b90600052602060002090600302016002015403611412576000805b600b805490508110156113e05782600b82815481106113ba576113b9612425565b5b9060005260206000200154036113d357600191506113e0565b8080600101915050611398565b508061141057600b8290806001815401808255809150506001900390600052602060002001600090919091909150555b505b5b600960003373ffffffffffffffffffffffffffffffffffffffff1673ffffffffffffffffffffffffffffffffffffffff16815260200190815260200160002060009054906101000a900460ff16611520576001600960003373ffffffffffffffffffffffffffffffffffffffff1673ffffffffffffffffffffffffffffffffffffffff16815260200190815260200160002060006101000a81548160ff021916908315150217905550600a339080600181540180825580915050600190039060005260206000200160009091909190916101000a81548173ffffffffffffffffffffffffffffffffffffffff021916908373ffffffffffffffffffffffffffffffffffffffff1602179055505b3373ffffffffffffffffffffffffffffffffffffffff167f544daa386dfdc3b41931e1e5268e5ba67dc1f1c18921149d43e3d2df2f846b28826008848154811061156d5761156c612425565b5b906000526020600020906003020160010160405161158c92919061258b565b60405180910390a250565b600c60009054906101000a900473ffffffffffffffffffffffffffffffffffffffff1681565b60055481565b6115cb61179a565b73ffffffffffffffffffffffffffffffffffffffff166115e96108ec565b73ffffffffffffffffffffffffffffffffffffffff161461163f576040517f08c379a000000000000000000000000000000000000000000000000000000000815260040161163690611f20565b60405180910390fd5b600073ffffffffffffffffffffffffffffffffffffffff168173ffffffffffffffffffffffffffffffffffffffff16036116ae576040517f08c379a00000000000000000000000000000000000000000000000000000000081526004016116a59061262d565b60405180910390fd5b8073ffffffffffffffffffffffffffffffffffffffff1660008054906101000a900473ffffffffffffffffffffffffffffffffffffffff1673ffffffffffffffffffffffffffffffffffffffff167f8be0079c531659141344cd1fd0a4f28419497f9722a3daafe3b4186f6b6457e060405160405180910390a3806000806101000a81548173ffffffffffffffffffffffffffffffffffffffff021916908373ffffffffffffffffffffffffffffffffffffffff16021790555050565b600f6020528160005260406000206020528060005260406000206000915091509054906101000a900460ff1681565b600033905090565b6000600a805490509050600081600754106117bd57816117c1565b6007545b9050600081846117d191906123f4565b905060005b82811015611948576000600a805490504244846040516020016117fb9392919061266e565b6040516020818303038152906040528051906020012060001c61181e91906126ab565b90506000600a828154811061183657611835612425565b5b9060005260206000200160009054906101000a900473ffffffffffffffffffffffffffffffffffffffff169050600c60009054906101000a900473ffffffffffffffffffffffffffffffffffffffff1673ffffffffffffffffffffffffffffffffffffffff1663a9059cbb82866040518363ffffffff1660e01b81526004016118c092919061232b565b6020604051808303816000875af11580156118df573d6000803e3d6000fd5b505050506040513d601f19601f820116820180604052508101906119039190612048565b611939576040517f880a149100000000000000000000000000000000000000000000000000000000815260040160405180910390fd5b505080806001019150506117d6565b5050505050565b82805482825590600052602060002090810192821561198b579160200282015b8281111561198a57825182559160200191906001019061196f565b5b509050611998919061199c565b5090565b5b808211156119b557600081600090555060010161199d565b5090565b6000604051905090565b600080fd5b600080fd5b6000819050919050565b6119e0816119cd565b81146119eb57600080fd5b50565b6000813590506119fd816119d7565b92915050565b60008060008060808587031215611a1d57611a1c6119c3565b5b6000611a2b878288016119ee565b9450506020611a3c878288016119ee565b9350506040611a4d878288016119ee565b9250506060611a5e878288016119ee565b91505092959194509250565b600081519050919050565b600082825260208201905092915050565b60005b83811015611aa4578082015181840152602081019050611a89565b60008484015250505050565b6000601f19601f8301169050919050565b6000611acc82611a6a565b611ad68185611a75565b9350611ae6818560208601611a86565b611aef81611ab0565b840191505092915050565b60006020820190508181036000830152611b148184611ac1565b905092915050565b611b25816119cd565b82525050565b6000602082019050611b406000830184611b1c565b92915050565b600080fd5b600080fd5b7f4e487b7100000000000000000000000000000000000000000000000000000000600052604160045260246000fd5b611b8882611ab0565b810181811067ffffffffffffffff82111715611ba757611ba6611b50565b5b80604052505050565b6000611bba6119b9565b9050611bc68282611b7f565b919050565b600067ffffffffffffffff821115611be657611be5611b50565b5b611bef82611ab0565b9050602081019050919050565b82818337600083830152505050565b6000611c1e611c1984611bcb565b611bb0565b905082815260208101848484011115611c3a57611c39611b4b565b5b611c45848285611bfc565b509392505050565b600082601f830112611c6257611c61611b46565b5b8135611c72848260208601611c0b565b91505092915050565b600060208284031215611c9157611c906119c3565b5b600082013567ffffffffffffffff811115611caf57611cae6119c8565b5b611cbb84828501611c4d565b91505092915050565b600073ffffffffffffffffffffffffffffffffffffffff82169050919050565b6000611cef82611cc4565b9050919050565b611cff81611ce4565b8114611d0a57600080fd5b50565b600081359050611d1c81611cf6565b92915050565b600060208284031215611d3857611d376119c3565b5b6000611d4684828501611d0d565b91505092915050565b60008115159050919050565b611d6481611d4f565b82525050565b6000602082019050611d7f6000830184611d5b565b92915050565b611d8e81611ce4565b82525050565b6000602082019050611da96000830184611d85565b92915050565b600060208284031215611dc557611dc46119c3565b5b6000611dd3848285016119ee565b91505092915050565b6000606082019050611df16000830186611d85565b8181036020830152611e038185611ac1565b9050611e126040830184611b1c565b949350505050565b6000819050919050565b6000611e3f611e3a611e3584611cc4565b611e1a565b611cc4565b9050919050565b6000611e5182611e24565b9050919050565b6000611e6382611e46565b9050919050565b611e7381611e58565b82525050565b6000602082019050611e8e6000830184611e6a565b92915050565b60008060408385031215611eab57611eaa6119c3565b5b6000611eb9858286016119ee565b9250506020611eca85828601611d0d565b9150509250929050565b7f4f776e61626c653a2063616c6c6572206973206e6f7420746865206f776e6572600082015250565b6000611f0a602083611a75565b9150611f1582611ed4565b602082019050919050565b60006020820190508181036000830152611f3981611efd565b9050919050565b6000608082019050611f556000830187611b1c565b611f626020830186611b1c565b611f6f6040830185611b1c565b611f7c6060830184611b1c565b95945050505050565b7f4e487b7100000000000000000000000000000000000000000000000000000000600052602260045260246000fd5b60006002820490506001821680611fcc57607f821691505b602082108103611fdf57611fde611f85565b5b50919050565b6000606082019050611ffa6000830186611d85565b6120076020830185611d85565b6120146040830184611b1c565b949350505050565b61202581611d4f565b811461203057600080fd5b50565b6000815190506120428161201c565b92915050565b60006020828403121561205e5761205d6119c3565b5b600061206c84828501612033565b91505092915050565b60008190508160005260206000209050919050565b60006020601f8301049050919050565b600082821b905092915050565b6000600883026120d77fffffffffffffffffffffffffffffffffffffffffffffffffffffffffffffffff8261209a565b6120e1868361209a565b95508019841693508086168417925050509392505050565b600061211461210f61210a846119cd565b611e1a565b6119cd565b9050919050565b6000819050919050565b61212e836120f9565b61214261213a8261211b565b8484546120a7565b825550505050565b600090565b61215761214a565b612162818484612125565b505050565b5b818110156121865761217b60008261214f565b600181019050612168565b5050565b601f8211156121cb5761219c81612075565b6121a58461208a565b810160208510156121b4578190505b6121c86121c08561208a565b830182612167565b50505b505050565b600082821c905092915050565b60006121ee600019846008026121d0565b1980831691505092915050565b600061220783836121dd565b9150826002028217905092915050565b61222082611a6a565b67ffffffffffffffff81111561223957612238611b50565b5b6122438254611fb4565b61224e82828561218a565b600060209050601f831160018114612281576000841561226f578287015190505b61227985826121fb565b8655506122e1565b601f19841661228f86612075565b60005b828110156122b757848901518255600182019150602085019450602081019050612292565b868310156122d457848901516122d0601f8916826121dd565b8355505b6001600288020188555050505b505050505050565b6000815190506122f8816119d7565b92915050565b600060208284031215612314576123136119c3565b5b6000612322848285016122e9565b91505092915050565b60006040820190506123406000830185611d85565b61234d6020830184611b1c565b9392505050565b7f4e487b7100000000000000000000000000000000000000000000000000000000600052601160045260246000fd5b600061238e826119cd565b9150612399836119cd565b92508282026123a7816119cd565b915082820484148315176123be576123bd612354565b5b5092915050565b7f4e487b7100000000000000000000000000000000000000000000000000000000600052601260045260246000fd5b60006123ff826119cd565b915061240a836119cd565b92508261241a576124196123c5565b5b828204905092915050565b7f4e487b7100000000000000000000000000000000000000000000000000000000600052603260045260246000fd5b600061245f826119cd565b915061246a836119cd565b925082820390508181111561248257612481612354565b5b92915050565b600060608201905061249d6000830186611d85565b6124aa6020830185611b1c565b6124b76040830184611b1c565b949350505050565b60006124ca826119cd565b91507fffffffffffffffffffffffffffffffffffffffffffffffffffffffffffffffff82036124fc576124fb612354565b5b600182019050919050565b6000815461251481611fb4565b61251e8186611a75565b94506001821660008114612539576001811461254f57612582565b60ff198316865281151560200286019350612582565b61255885612075565b60005b8381101561257a5781548189015260018201915060208101905061255b565b808801955050505b50505092915050565b60006040820190506125a06000830185611b1c565b81810360208301526125b28184612507565b90509392505050565b7f4f776e61626c653a206e6577206f776e657220697320746865207a65726f206160008201527f6464726573730000000000000000000000000000000000000000000000000000602082015250565b6000612617602683611a75565b9150612622826125bb565b604082019050919050565b600060208201905081810360008301526126468161260a565b9050919050565b6000819050919050565b612668612663826119cd565b61264d565b82525050565b600061267a8286612657565b60208201915061268a8285612657565b60208201915061269a8284612657565b602082019150819050949350505050565b60006126b6826119cd565b91506126c1836119cd565b9250826126d1576126d06123c5565b5b82820690509291505056fea26469706673582212206557154ca75bd3354390043297975f82ace71e5ff7984820ea131d7a68fa37bd64736f6c63430008180033",
  "linkReferences": {},
  "deployedLinkReferences": {}
}